:020000001028C6
:10000800FE00030EF3000408F4000A08F50083124A
:1000180003137F08F60075291128783084007C3096
:10002800FA228313203084003C30FA2283018F2A7D
:1000380000308A000408840A82070034003400343F
:100048000034003401340034003400340034013406
:1000580000340034013401340034003400340034F6
:1000680001340034013400340134003400340134E4
:1000780001340034013401340134003400340034D4
:100088000034013401340034003401344E2A542A37
:020098005A2AE2
:10020000FF0001308A007F0882070529F02AAA2A08
:10021000152BE22A83120313BE000A303E02031894
:1002200008003E08BC0001300310BC0DFF3E031D5A
:10023000142903103C0D013E84001C20BD003D0C20
:10024000031C26298312031306142929831203137E
:1002500006103E08BC0001300310BC0DFF3E031D1C
:100260002C2903103C0D013E013E84001C20BD00E2
:100270003D0C031C3F298312031386144229831269
:10028000031386103E08BC0001300310BC0DFF3E76
:10029000031D452903103C0D023E013E84001C2035
:1002A000BD003D0C031C58298312031306155B295E
:1002B0008312031306113E08BC0001300310BC0D6D
:1002C000FF3E031D5E2903103C0D033E013E8400EA
:1002D0001C20BD003D0C031C7129831203138615DD
:1002E000080083120313861108000B190B1DC52982
:1002F000BB01BB0AF701043077020318AE29770867
:10030000F0007007203E840083130008F100840A87
:100310000008F2007208803AFF0080307F02031D5F
:10032000932901307102031CA6297708F000700799
:10033000203E8400FF3083138007840F00080318D9
:10034000000AFF00FF307F07800084030130F000C7
:100350007008F70704307702031C7F297B03031D15
:10036000BF29FF30F8070318F90AFF30F9077808AA
:100370007904031DBF29831203138A0182010B1123
:100380000B1183308312031381007608FF00750878
:100390008A0074088400730E8300FE0E7E0E09002E
:1003A00083120313C60104304602031808004608EE
:1003B000303E8400831300080319112A4608C20046
:1003C0004207203E84000008C300840A0008C400DD
:1003D00043084404031D112A0130C2004208FB00F7
:1003E000F430F8000130F9004608303E840000087F
:1003F0000021FB01831203134608C2004207283E76
:10040000840083130008C300840A0008C40046085F
:10041000C5004507203E840043088000840A440844
:1004200080000130C2004208C607D329023083127F
:100430000313BC003C08B0000330BC003C08B10012
:100440000430BC003C08B2000130BC003C08B300E2
:10045000C830A8000030A900E830AA000330AB0083
:10046000E830AC000330AD006430AE000030AF00C7
:10047000C830A0000030A100E830A2000330A30083
:10048000E830A4000330A5006430A6000030A700C7
:10049000FB01080083120313C000602A06168612AF
:1004A000061340080A2108000612861606134008A3
:1004B0000A21080006128612061740080A210800C1
:1004C000831203133F08840003300402031808005A
:1004D00000308A004A300407820008007A080319B5
:1004E0000800013083120313BC003C08B9070A302E
:1004F0003902031C802AB9010130BC003C08B8074E
:100500000A303802031C892AB8010130BC003C08BB
:10051000B7070A303702031C08000A2308008316B5
:1005200003138601831203138601FF30831603131E
:10053000850083120313BC01BD010030C1220A23D0
:100540001622D222831203133B03031DA22ABB01EE
:10055000D021A22A0330831203133A020318BA01EE
:100560003A08C1004108BF003A08343E84008313B2
:1005700000084A22013083120313C1004108BA0760
:10058000080083120313BF00BA013F08BE003E08F3
:10059000B4003C08BE003E08B5003D08BE003E0861
:1005A000B6000800831603130108F83902388100E9
:1005B000811181128B168B178330831203138100F4
:1005C000BB0108006E22831203133808C0004008E4
:1005D000BC003908C1004108BD003708C12208002D
:1005E00083120313051CF72A013002230800003090
:1005F0000223080064008001840A04060319003401
:100600000406FB2A83120313BD003D08BC003C080E
:10061000FA00080083120313B701B801B9010800FA
:0E0620008030831203138606080010230800A2
:02400E0009FFA8
:00000001FF
