:020000001028C6
:10000800FE00030EF3000408F4000A08F50083124A
:1000180003137F08F6000A291128F801F901FA01EB
:0E002800831320308400353003228301DF294A
:10020000FF0001308A007F08820705290E2A0D2A87
:100210000C2A0B2A0B190B1D5A29B401B40AF70139
:1002200004307702031843297708F0007007203E56
:10023000840083130008F100840A0008F2007208A9
:10024000803AFF0080307F02031D282901307102AF
:10025000031C3B297708F0007007203E8400FF3024
:1002600083138007840F00080318000AFF00FF3083
:100270007F07800084030130F0007008F707043026
:100280007702031C14297A03031D5429FF30F80751
:100290000318F90AFF30F90778087904031D542977
:1002A000831203138A0182010B110B118330831215
:1002B000031381007608FF0075088A007408840023
:1002C000730E8300FE0E7E0E090083120313B90124
:1002D00004303902031808003908303E84008313C3
:1002E00000080319A6293908B5003507203E840007
:1002F0000008B600840A0008B70036083704031D5A
:10030000A6290130B5003508FA00F430F8000130B4
:10031000F9003908303E840000080021FA018312F8
:1003200003133908B5003507283E840083130008FD
:10033000B600840A0008B7003908B8003807203E24
:10034000840036088000840A370880000130B50038
:100350003508B9076829023083120313B500350840
:10036000B0000330B5003508B1000430B5003508E1
:10037000B2000130B5003508B300C830A800003025
:10038000A900E830AA000330AB00E830AC0003302D
:10039000AD006430AE000030AF00C830A0000030C7
:1003A000A100E830A2000330A300E830A40003302D
:1003B000A5006430A6000030A700FA0108008316EB
:1003C00003138601831203138601FF308316031380
:1003D0008500AB21F321831203133403031DEB29A2
:1003E000B4016521EB29831603130108F83902389B
:1003F0008100811181128B168B17833083120313B6
:100400008100B401080064008001840A0406031915
:0E04100000340406042A080008000800080052
:02400E0009FFA8
:00000001FF
